:020000040800F2
:100000004807002089010008FD0C000825060008AB
:10001000F90C00083B020008BF10000800000000B7
:10002000000000000000000000000000490E000871
:100030002D04000800000000FF0C00085D0F000800
:10004000A3010008A3010008A3010008A301000800
:10005000A3010008A301000831040008A30100085F
:10006000A3010008A3010008A3010008A3010008E0
:10007000A3010008A3010008A3010008A3010008D0
:10008000A3010008A3010008A3010008A3010008C0
:10009000A3010008A3010008A3010008A3010008B0
:1000A000A3010008A3010008A3010008A3010008A0
:1000B000C10F0008A3010008A3010008A301000864
:1000C000A3010008A3010008A3010008A301000880
:1000D000A301000809100008A3010008A3010008FB
:1000E00071040008A3010008A301000800F002F851
:1000F00000F03AF80AA090E8000C82448344AAF188
:100100000107DA4501D100F02FF8AFF2090EBAE885
:100110000F0013F0010F18BFFB1A43F0010318473B
:100120007040000090400000103A24BF78C878C1A9
:10013000FAD8520724BF30C830C144BF04680C60ED
:10014000704700000023002400250026103A28BF35
:1001500078C1FBD8520728BF30C148BF0B60704739
:100160001FB51FBD10B510BD00F031F81146FFF7E7
:10017000F7FF00F0F5FF00F04FF803B4FFF7F2FFD0
:1001800003BC00F053F800000948804709480047C5
:10019000FEE7FEE7FEE7FEE7FEE7FEE7FEE7FEE737
:1001A000FEE7FEE704480549054A064B7047000094
:1001B000610F0008ED0000084801002048070020FA
:1001C0004803002048030020704770477047754679
:1001D00000F028F8AE4605006946534620F00700B7
:1001E000854618B020B5FFF7DDFFBDE820404FF091
:1001F00000064FF000074FF000084FF0000B21F011
:100200000701AC46ACE8C009ACE8C009ACE8C009DD
:10021000ACE8C0098D4670470446AFF30080204625
:10022000FFF7ABFF00487047E400002001491820A9
:10023000ABBEFEE726000200704700BFFEE70000ED
:1002400000F0805111B10349086001E002494860A3
:1002500070470000040402400000024021B102681F
:1002600042F00102026004E002684FF6FE731A4099
:100270000260704701684FF6FE7211400160002174
:10028000016041608160C1604B49884208D14A49A0
:100290000839496841F00F01474A083A51608AE03D
:1002A00045491431884208D143490839496841F029
:1002B000F001414A083A51607DE03F4928318842C7
:1002C00008D13D490839496841F470613A4A083A11
:1002D000516070E038493C31884208D136490839CC
:1002E000496841F47041344A083A516063E0324948
:1002F0005031884208D130490839496841F47021A9
:100300002D4A083A516056E02B496431884208D1A1
:1003100029490839496841F47001274A083A51606F
:1003200049E025497831884208D12349083949688C
:1003300041F07061204A083A51603CE01F49884210
:1003400006D1011F096841F00F01021F116032E060
:100350001A491431884208D11849091F096841F027
:10036000F001164A121F116025E014492831884215
:1003700008D11249091F096841F470610F4A121F20
:10038000116018E00D493C31884208D10B49091F22
:10039000096841F47041094A121F11600BE00749D6
:1003A0005031884207D10549091F096841F470217D
:1003B000024A121F11607047080002400804024000
:1003C00001460020002201F0805313B1054B1A684A
:1003D00001E0054B1A6802EA01030BB1012000E0BD
:1003E00000207047000402400000024010B50022C7
:1003F000026847F6F0739A430C6A8B6823430C69D2
:1004000023434C6923438C692343CC6923434C6ABF
:1004100023438C6A23431A430260CB6843600B6812
:1004200083604B68C36010BD416070477047000037
:1004300010B5032000F06EFE012000F047F888B1EF
:100440000221094800F0E1F818B9042007490870B2
:1004500002E0032005490870062000F05BFE012041
:1004600000F02EF810BD0000000801401F00002021
:1004700010B54FF4006000F029F840B10BA000F077
:10048000FDFD02200B490870800200F019F84FF4BE
:10049000805000F01BF840B107A000F0EFFD0120F4
:1004A00004490870000300F00BF810BD4241434BB3
:1004B000202000001F000020454E544552202000FF
:1004C0000149086070470000140401400146002003
:1004D0000022074B1B6803EA0102054B14331B681B
:1004E0000B4013B10AB1012000E00020704700006A
:1004F000000401402DE9F0410246002500260020BD
:1005000000230024002791F803C00CF00F0591F898
:1005100003C00CF0100CBCF1000F03D091F802C026
:100520004CEA050591F800C0BCF1000F31D0146809
:1005300000202BE04FF0010C0CFA00F3B1F800C0E2
:100540000CEA03069E4220D183004FF00F0C0CFAF8
:1005500003F7BC4305FA03FC4CEA040491F803C01A
:10056000BCF1280F06D14FF0010C0CFA00FCC2F8C8
:1005700014C00AE091F803C0BCF1480F05D14FF058
:10058000010C0CFA00FCC2F810C0401C0828D1D3A2
:100590001460B1F800C0BCF1FF0F34DD54680020D6
:1005A0002EE000F1080C4FF0010808FA0CF3B1F846
:1005B00000C00CEA03069E4221D183004FF00F0CCD
:1005C0000CFA03F7BC4305FA03FC4CEA040491F867
:1005D00003C0BCF1280F05D100F1080C08FA0CF893
:1005E000C2F8148091F803C0BCF1480F07D100F1A4
:1005F000080C4FF0010808FA0CF8C2F81080401CF3
:100600000828CED35460BDE8F081024600209368EC
:100610000B400BB1012000E00020704741617047A2
:100620000161704700BFFEE72DE9F04107460C4627
:1006300015461E462A2000F0D1FA384600F0BFFACF
:10064000284600F0BCFA2B2000F0C8FA204600F043
:10065000B6FA304600F0B3FA2C2000F0BFFABDE83D
:10066000F0812DE9FF4F85B081468A460020039036
:1006700083460798A0EB09050898A0EB0A06CDF879
:100680000890CDF804A0002D01DD012705E00DB98B
:10069000002702E04FF0FF376D42002E02DD4FF0E1
:1006A000010806E016B94FF0000802E04FF0FF38ED
:1006B0007642B54201DD2C4600E03446002004902D
:1006C0001EE0019A91B2029A90B2129A00F01FF8BD
:1006D000039828440390B3440398A04205DD03988F
:1006E000001B0390029838440290A34504DDABEB55
:1006F000040B0198404401900498401C80B204907F
:10070000611C04988842DCDB09B0BDE8F08F70B54D
:1007100004460D4616462B46224629462046FFF73C
:1007200083FF304600F04BFA70BD2DE9F8430546D3
:100730000E4617469846089C33463A4631462846A8
:100740000094FFF78EFF43462A4631462846009420
:10075000FFF787FF43463A46414628460094FFF795
:1007600080FF43463A46314638460094FFF779FF0A
:10077000BDE8F8832DE9F84F0746884614461D4624
:10078000DDF828904FF0010ACDF80090E01BA5EBB2
:10079000080100FB01F6681E83B2601E82B241466A
:1007A0003846FFF741FF08212748FFF737FF274862
:1007B000008840F40060254908800121234800F0AA
:1007C00005FB26E04FF6FE70864202D9361A8346B4
:1007D00002E04FF0000AB3461FFA8BF36A461B494A
:1007E0000C311B4800F044FA01220221174800F0A6
:1007F000F9FA174800F06CFA09E04FF40070FFF7BF
:10080000DFFD20B14FF40070FFF71AFD00E0F4E7C0
:1008100000BFBAF1000FD5D108210B48FFF700FF48
:100820000A480088C043094908800846008840F407
:100830000060088008460088C04308800121034802
:1008400000F0C4FABDE8F88F000801400030014014
:100850003000024008B50121042000F061FA0121B6
:10086000082000F05DFA5820ADF8000010208DF847
:10087000030003208DF8020069460948FFF73AFE9D
:100880000220ADF8000069460648FFF733FE582104
:100890000348FFF7C5FE02210248FFF7C1FE08BD6D
:1008A00000080140000C014010B500F049FAFFF7C4
:1008B000D1FF10216248FFF7B1FE642000F02AFC4E
:1008C00010215F48FFF7ACFE642000F023FC4021BC
:1008D0005B48FFF7A5FE642000F01CFC112000F02F
:1008E0007DF9782000F016FC362000F077F9A02082
:1008F00000F06EF93A2000F071F9052000F068F977
:10090000B22000F06BF90C2000F062F90C2000F02E
:100910005FF9002000F05CF9332000F059F9332032
:1009200000F056F9B72000F059F9352000F050F9E1
:10093000BB2000F053F9322000F04AF9C22000F049
:100940004DF9012000F044F9C32000F047F91520CB
:1009500000F03EF9C42000F041F9202000F038F901
:10096000C62000F03BF90F2000F032F9D02000F053
:1009700035F9A42000F02CF9A12000F029F9E0209D
:1009800000F02CF9D02000F023F9082000F020F925
:100990000E2000F01DF9092000F01AF9092000F0DE
:1009A00017F9052000F014F9312000F011F9332077
:1009B00000F00EF9482000F00BF9172000F008F9BC
:1009C000142000F005F9152000F002F9312000F0A4
:1009D000FFF8342000F0FCF8E12000F0FFF8D02010
:1009E00000F0F6F8082000F0F3F80E2000F0F0F820
:1009F000092000F0EDF8092000F0EAF8152000F0D9
:100A0000E7F8312000F0E4F8332000F0E1F8482066
:100A100000F0DEF8172000F0DBF8142000F0D8F822
:100A2000152000F0D5F8312000F0D2F8342000F085
:100A3000CFF8212000F0D2F8292000F0CFF810BD27
:100A4000000801402DE9FF5F07468A4690469B4615
:100A50000F9D002002900097284605EBD071C1F34E
:100A600047042046E21704EB5272D2102146E317E6
:100A700004EB5373DB10A4EBC3030BB1012300E0C1
:100A800000231A446A4392B20192A8F1200000F0B8
:100A9000FF080AEB0500401E83B23819401E82B2DF
:100AA00051463846FFF7C0FD00265BE0102D05D10A
:100AB0002F4800EB0810805D039013E0182D07D13C
:100AC00008EB48002B4901EB0010805D039009E022
:100AD000202D05D1284800EB8810805D039001E0AF
:100AE000BDE8FF9F4FF0000936E01098C8B901201B
:100AF00000FA09F00399084018B1584600F05FF871
:100B000002E00E9800F05BF80298401CC0B2029020
:100B1000029890FBF4F104FB1100C8B90020029088
:100B20001DE0012000FA09F00399084020B15A465F
:100B300051463846FFF7EBFD781C87B20098381A0B
:100B4000A04205D1009F0AF101001FFA80FA06E0D9
:100B500009F1010000F0FF09B9F1080FC5DB00BF82
:100B6000701C86B201988642A0DB00BFB8E7000087
:100B7000E0110008D0170008A02900082DE9FE4F59
:100B800006460F4614469846DDE90D5ADDF83090CA
:100B900010E0CDE9015ACDF800902278434639465D
:100BA0003046FFF74FFF284605EBD07106EB610199
:100BB0008EB2641C20780028EBD1BDE8FE8F10B502
:100BC0000446201200F01AF8E0B200F017F810BD49
:100BD00010B50446204600F011F810BD10B50446CB
:100BE00002210548FFF71AFD204600F007F8022110
:100BF0000148FFF715FD10BD000C014010B504467B
:100C000008210B48FFF70AFD00BF0221094800F048
:100C1000F2F80028F9D02146064800F0F5F8012046
:100C200000F04FFA08210248FFF7FAFC10BD00005F
:100C3000000801400030014008B50121082000F003
:100C40006FF810208DF8030003208DF802004FF498
:100C50008060ADF8000069460448FFF74BFC4FF494
:100C600080610248FFF7DCFC08BD0000000C014079
:100C70002DE9F04107460D4616461C46012108465F
:100C800000F03EF83846FFF7F5FA0F4804800F48A9
:100C90000560466010200D4988600846C460002049
:100CA000086148614FF4807088618000C86100204D
:100CB00008624FF480504862002088623846FFF78F
:100CC00095FBBDE8F081000020000020B800002066
:100CD00010B5044600212046FFF7C0FA04480188F9
:100CE0000448FFF7A1FB01212046FFF7B7FA10BD2A
:100CF000200000203000024000BFFEE77047704730
:100D000029B1064A52690243044B5A6104E0034A7E
:100D100052698243014B5A61704700000010024043
:100D200029B1064A92690243044B9A6104E0034ADE
:100D300092698243014B9A617047000000100240A3
:100D400000B587B001210803FFF7EAFF0121042065
:100D5000FFF7E6FFA020ADF8180003208DF81A0079
:100D600018208DF81B0006A91648FFF7C3FBA02129
:100D70001448FFF755FC4FF44040ADF804004FF421
:100D80008270ADF806000020ADF808000220ADF832
:100D90000A000120ADF80C004002ADF80E0008205A
:100DA000ADF810000020ADF812000720ADF81400D7
:100DB00001A9054800F02AF80121034800F006F8CF
:100DC00007B000BD000801400030014021B1028899
:100DD00042F04002028004E002884FF6BF731A40DE
:100DE000028070471AB183880B43838002E08388B6
:100DF0008B43838070470246002013890B400BB160
:100E0000012000E0002070478181704710B500226A
:100E1000028802F441520B884C8823438C88234378
:100E2000CC8823430C8923434C8923438C89234357
:100E3000CC8923431A430280838B4FF2FF742340F3
:100E400083830B8A038210BD704710B500F002F84F
:100E500010BD00000CB500200190009033480068E0
:100E600040F480303149086000BF3048006800F429
:100E7000003000900198401C0190009818B901982A
:100E8000B0F5A06FF1D12948006800F4003010B12E
:100E90000120009001E0002000900098012843D13B
:100EA0002348006840F010002149086008460068A7
:100EB00020F0030008600846006840F00200086067
:100EC0001A48406819494860084640684860084622
:100ED000406840F4806048600846406820F47C1018
:100EE00048600846406840F4E810486008460068DA
:100EF00040F08070086000BF0C48006800F000708F
:100F00000028F9D00948406820F0030007494860EC
:100F10000846406840F00200486000BF034840684F
:100F200000F00C000828F9D10CBD000000100240B0
:100F300000200240042808D14FF0E021096941F067
:100F400004014FF0E022116107E04FF0E021096950
:100F500021F004014FF0E02211617047704700005A
:100F600010B51348006840F00100114908600846B8
:100F70004068104908400E494860084600680E491C
:100F800008400B4908600846006820F4802008608B
:100F90000846406820F4FE0048604FF41F00886057
:100FA000FFF753FF4FF000600449086010BD0000D8
:100FB000001002400000FFF8FFFFF6FE08ED00E021
:100FC00010B50121880700F00EF8012805D103496A
:100FD00008800121800700F003F810BD26000020E2
:100FE000CA430282704730B5024600200023002425
:100FF000158A05EA0103958905EA010413B10CB1CC
:10100000012000E0002030BD10B540F225510D4810
:1010100000F03FF878B10B4800F048F80A490B4A55
:101020001278885401200A4908700A48007810B1E3
:1010300001200949087005480078401C03490870E0
:1010400010BD00000038014078000020180000208A
:101050001A0000201C0000201D00002010B50446CE
:1010600000BF8021044800F014F80028F9D0214680
:10107000014800F020F810BD0038014010B50446CA
:1010800003E014F8010BFFF7E9FF20780028F8D1FE
:1010900010BD02460020B1F5007F00D100BF1388CB
:1010A0000B400BB1012000E000207047014688880A
:1010B000C0F308007047C1F308028280704700BF88
:1010C000FEE700BF0100A0F10100FBD17047000066
:1010D00010B56FF00400FFF72DFF0A4800680A49B9
:1010E000B0FBF1F0094908700846007800EB4001B8
:1010F000C1EBC0104FF6FF7101EAC000044908803F
:1011000010BD00000000002000127A001400002032
:10111000160000200146114A12884A434FF0E0238E
:101120005A6100229A611A46126942F001021A615C
:1011300000BF4FF0E022106900F001021AB100F484
:101140008032002AF5D04FF0E022126922F001022D
:101150004FF0E0231A6100229A61704716000020C8
:101160003EB5FFF7B5FFFFF767FDFFF79DFB0020DA
:10117000F0234FF4A07201460090FFF7FBFA002421
:101180000EE04FF6FF70C4F1EF05ABB240F23F1531
:101190002A1B214600902046FFF7C7FA601CC4B204
:1011A000062CEEDB00201821CDE900014FF6FF737D
:1011B00006A26C2102904C20FFF7E0FC4FF4806106
:1011C0000648FFF72BFA00203EBD00005265666519
:1011D00072656E6365204C696E650000000C01400D
:1011E00000000000000000000000000000000000FF
:1011F0000000001818181818181000101800000027
:101200000000002C24242400000000000000000046
:10121000000000006824FE2424247E242400000012
:10122000000000107C161216386848483E08080076
:10123000000000864B692E1008689492630000003D
:10124000000000003C26261C4E527362FE00000087
:10125000000000181818180000000000000000002E
:10126000000000201018080C0C0C0C080818302086
:10127000000000040810103020202030101808044E
:1012800000000010502C3856100000000000000034
:10129000000000000000181818FE181818000000C0
:1012A00000000000000000000000001818100C00F2
:1012B0000000000000000000003C000000000000F2
:1012C00000000000000000000000001818000000EE
:1012D00000000040602030101008080404020000E4
:1012E000000000003C6642E2DACE42663C000000AC
:1012F00000000000181E1210101010107E000000D8
:10130000000000003C626060201008047E000000C5
:10131000000000003E6060203C4040603E00000055
:1013200000000000303828242622FF202000000082
:10133000000000007E0606067E4040603E00000081
:1013400000000000780C06126E4242463C0000008D
:10135000000000007E406020301018080C000000E3
:10136000000000003C46426C386642423C000000EF
:10137000000000003C664242665840201E0000000B
:1013800000000000000018180000001818000000FD
:1013900000000000000018180000001818100C00D1
:1013A00000000000000020180C060830600000005B
:1013B00000000000000000007E007E000000000031
:1013C0000000000000000C1820603008040000003D
:1013D0000000000C38606060180800080800000079
:1013E00000000038448282BBADA5A5F52903023C6C
:1013F0000000000018382C2464467EC283000000E0
:10140000000000003E6242623E4242423E00000056
:101410000000000078040202020202067C000000C4
:10142000000000003E6242C2C2C242621E000000D2
:10143000000000007E0606067E0606067E0000000E
:10144000000000007E0606067E0606060600000076
:101450000000000078060202734242467C00000051
:1014600000000000424242427E42424242000000EE
:10147000000000007E181818181818187E000000C8
:10148000000000003E202020202020221E0000001E
:10149000000000004222120A0E1A3222420000000E
:1014A0000000000004040404040404047C000000A0
:1014B000000000004666E6FADADA83838300000063
:1014C0000000000046464E4A5A5272626200000016
:1014D000000000003C46C2C3C3C3C2463C0000003B
:1014E000000000003E624242621E02020200000052
:1014F000000000003C46C2C3C3C3C2463C18F00013
:10150000000000003E6646663E3626664600000045
:10151000000000007C060206386040403E000000EB
:1015200000000000FE1818181818181818000000FD
:101530000000000042424242424242463C0000005B
:101540000000000083C2424664242C3818000000CA
:101550000000000083838292DADA6E666600000083
:1015600000000000C2662C1818382466C300000072
:10157000000000008342662C38181818180000007C
:10158000000000007E402030180804067E000000A5
:101590000000003808080808080808080808083883
:1015A0000000000204040808101030206040000011
:1015B0000000003C30303030303030303030303CA3
:1015C0000000000018382446000000000000000061
:1015D000000000000000000000000000000000FF0C
:1015E00000000004080000000000000000000000EF
:1015F0000000000000003C60407C42625E00000091
:101600000000000202023A46424242423E0000000E
:101610000000000000007804060206047C000000C0
:101620000000004040407C46424242665C000000B0
:101630000000000000003C46427E02067C000000E4
:10164000000000F01808087E0808080808000000DC
:10165000000000000000FC6642661A027CC2423CA8
:101660000000000202023A464242424242000000AA
:101670000000001818001E10101010107E0000004E
:101680000000002030003E20202020202020301E9E
:1016900000000006060646361E0E1626460000000E
:1016A0000000001E10101010101010107E0000001E
:1016B0000000000000006ED2D2D2D2D2D2000000D0
:1016C0000000000000003A46424242424200000050
:1016D0000000000000003C4642C242463C000000C0
:1016E0000000000000003A46424242423E0202022E
:1016F0000000000000007C46424242665C404040E0
:10170000000000000000764EC60606060600000037
:101710000000000000007C04043C60403E0000002B
:101720000000000008087F0808080808780000008A
:101730000000000000004242424242665C0000009D
:10174000000000000000C24266242C1818000000AF
:101750000000000000008383DA5A7A666600000009
:10176000000000000000466438183864460000009D
:10177000000000000000C24266242C3818180C0734
:101780000000000000007E60301808047E000000A9
:1017900000000070180808080C0E080808081870E7
:1017A0000000101010101010101010101010101059
:1017B0000000000C18101010307010101010180CD1
:1017C00000000000000000008ED260000000000059
:1017D0000000000000000000000000000000000009
:1017E00000000000000000000000000000000000F9
:1017F00000000000000000000000000000000000E9
:1018000000000000000000000000600060006000B8
:101810006000600060006000600060006000000028
:1018200000006000600000000000000000000000F8
:1018300000000000000000000000980198019801DD
:1018400098010000000000000000000000000000FF
:101850000000000000000000000000000000000088
:101860000000000000000000000000001003100154
:101870001801FE0F1801980198019801FF078801CF
:10188000880188008C0000000000000000000000BB
:101890000000000000000000C000C000F8034C027F
:1018A000460046006C007C00F001E00320062006A4
:1018B0002007FE03FE0030003000000000000000A2
:1018C00000000000000000000C003E06320623036A
:1018D000B2019E00C00060002000B007D804C80C10
:1018E000CC0CC604820700000000000000000000CD
:1018F00000000000000000000000F800DC018C0186
:101900008C01CC01F80038007C066606C60686030A
:101910000603CE07FC0E00000000000000000000DF
:101920000000000000000000000060006000600097
:101930006000000000000000000000000000000047
:101940000000000000000000000000000000000097
:1019500000000000000000008001C001C000600025
:10196000300030003000180018001800180018006F
:101970003000300030006000C000C0018001000075
:101980000000000000000000180038003000600077
:10199000C000C000800080018001800180018001C2
:1019A0008000C000C000600030003000180000005F
:1019B0000000000000000000000060006402DC0382
:1019C000F000F0006C036402600000000000000002
:1019D0000000000000000000000000000000000007
:1019E00000000000000000000000000000000000F7
:1019F00060006000600060006000FE076000600042
:101A00006000600000000000000000000000000016
:101A100000000000000000000000000000000000C6
:101A200000000000000000000000000000000000B6
:101A30006000F000E000E0006000380000000000FE
:101A40000000000000000000000000000000000096
:101A500000000000000000000000F801000000008D
:101A60000000000000000000000000000000000076
:101A70000000000000000000000000000000000066
:101A80000000000000000000000000000000000056
:101A90006000F00060000000000000000000000096
:101AA00000000000000000000000000300038001AF
:101AB0008001C000C0004000600020003000300005
:101AC000180018000C000C000400000000000000CA
:101AD000000000000000000000006000F8010C039E
:101AE0000C0606068607C60676063E060E0606069F
:101AF0000C039C03F801000000000000000000003F
:101B0000000000000000000000000000F000FC00E9
:101B1000EC00E000E000E000E000E000E000E000B9
:101B2000E000FC07FC0700000000000000000000CF
:101B3000000000000000000000006000FC018C03B9
:101B400000030003000380038001C0006000300038
:101B50001800FC07FC070000000000000000000067
:101B6000000000000000000000007000FC01800385
:101B7000000300038001F800F801000300060006DE
:101B80000003C003FC000000000000000000000093
:101B9000000000000000000000000000C001E001A3
:101BA000B001B00198018C018C018601FF0FFF0F7D
:101BB00080018001800100000000000000000000A2
:101BC000000000000000000000000000FC030C000A
:101BD0000C000C000C00FC00C00300030003000319
:101BE0000003C401FC000000000000000000000031
:101BF000000000000000000000000000F0033800BA
:101C00000C000C000400FE011E0306060606040676
:101C10000C069C03F801000000000000000000001A
:101C2000000000000000000000000000FE070006A9
:101C30000003000380018001C000C000600060005C
:101C4000300030001800000000000000000000001C
:101C5000000000000000000000006000F8030C031A
:101C60000C060C039C03F801F0019C030C0706060C
:101C700006069C03F80100000000000000000000C0
:101C8000000000000000000000006000F8010C03EC
:101C90000603060606060E06FC07F8060002000309
:101CA0008001FC007C00000000000000000000003B
:101CB0000000000000000000000000000000000024
:101CC0000000E000F00060000000000000000000E4
:101CD0006000F00060000000000000000000000054
:101CE00000000000000000000000000000000000F4
:101CF0000000E000F00060000000000000000000B4
:101D00006000E000E000C00060003800000000005B
:101D100000000000000000000000000000000000C3
:101D20000003C001E000300018000C001800700033
:101D3000E000800100010000000000000000000041
:101D40000000000000000000000000000000000093
:101D5000000000000000FE0700000000FE07FE0774
:101D60000000000000000000000000000000000073
:101D70000000000000000000000000000000000063
:101D8000080038007000C000800100078001E000FA
:101D900070001800080000000000000000000000B3
:101DA00000000000000000000000F800C0018003F7
:101DB000000300038003F0017000300030000000D9
:101DC0000000700030000000000000000000000073
:101DD0000000000000000000C000F00318060C0422
:101DE000040C060CF20DB20D9B0D9B0D9B0C9B0C75
:101DF000DB04FB070300020006000C01F8010000F1
:101E0000000000000000000000000000F000F000F2
:101E1000F0009801980198010C030C03FC03FE07E5
:101E200006060606030C000000000000000000008B
:101E3000000000000000000000000000FC010C0396
:101E40000C030C030C03FC01FC030C070C060C0632
:101E50000C07FC03FC000000000000000000000074
:101E600000000000000000000000C000F00718049F
:101E70000C000E00060006000600060006000E001C
:101E80000C007807F00700000000000000000000D0
:101E9000000000000000000000000000FE018603BA
:101EA00006070606060606060606060606060606D1
:101EB0000603FE017E00000000000000000000009C
:101EC000000000000000000000000000FC030C0007
:101ED0000C000C000C00FC03FC030C000C000C00BC
:101EE0000C00FC03FC0300000000000000000000E8
:101EF000000000000000000000000000FC030C00D7
:101F00000C000C000C00FC03FC030C000C000C008B
:101F10000C000C000C00000000000000000000009D
:101F200000000000000000000000C001F8071C04D1
:101F30000C00060006000600C60706060606060692
:101F40000C063C07F0070000000000000000000045
:101F50000000000000000000000000000606060669
:101F6000060606060606FE07FE070606060606061F
:101F7000060606060606000000000000000000003D
:101F8000000000000000000000000000FC036000F2
:101F90006000600060006000600060006000600041
:101FA0006000FC03FC0300000000000000000000D3
:101FB000000000000000000000000000FC018001A3
:101FC0008001800180018001800180018001800109
:101FD0008001CC01FC0000000000000000000000B7
:101FE0000000000000000000000000000C038C0155
:101FF000CC00CC006C003C003C007C00EC00CC0031
:102000008C010C030C070000000000000000000021
:102010000000000000000000000000000C000C00A8
:102020000C000C000C000C000C000C000C000C0050
:102030000C00FC07FC07000000000000000000008E
:102040000000000000000000000000000E070E0766
:102050009E079E079606F606760662046204020450
:1020600002040204020C0000000000000000000056
:102070000000000000000000000000000E061E0628
:102080001E063606360666066606C606C6068607B7
:102090008607060706070000000000000000000099
:1020A000000000000000000000006000F8010C03C8
:1020B00006060606060606060604060606060606C2
:1020C0000E079C03F8010000000000000000000063
:1020D000000000000000000000000000FC010C03F4
:1020E0000C060C060C060C078C03FC010C000C0003
:1020F0000C000C000C0000000000000000000000BC
:10210000000000000000000000006000F8030C0365
:102110000606060606060606060406060606060661
:102120000E079C03F80160006000C00F0003000070
:10213000000000000000000000000000FC018C0313
:102140000C030C030C03CC01FC00CC008C018C03B1
:102150000C030C070C06000000000000000000004B
:1021600000000000000000000000E000F8030C0088
:10217000060006000C007800F0018003000700064E
:1021800000078E03FE0100000000000000000000B8
:10219000000000000000000000000000FE076000DA
:1021A000600060006000600060006000600060002F
:1021B00060006000600000000000000000000000FF
:1021C00000000000000000000000000006060606F7
:1021D000060606060606060606060606060606069F
:1021E00006069C03F801000000000000000000004B
:1021F000000000000000000000000000070C0606C0
:1022000006060E060C030C031C0398019801B80186
:10221000F000F0006000000000000000000000007E
:10222000000000000000000000000000020C02049A
:102230000204060466046604E604F606960696079B
:102240009E070E070E0700000000000000000000BF
:1022500000000000000000000000000006060C0363
:102260009C039801F000F0006000F00098019801D4
:102270000C030E07060E0000000000000000000026
:10228000000000000000000000000000060E06062E
:102290000C031C039801B801F000600060006000AE
:1022A000600060006000000000000000000000000E
:1022B000000000000000000000000000FE07000316
:1022C00000038001C000E00060003000380018000A
:1022D0000C00FE07FE0700000000000000000000E8
:1022E0000000000000000000F001F00110001000EC
:1022F000100010001000100010001000100010005E
:10230000100010001000100010001000F00100007C
:10231000000000000000000000000C000800180091
:10232000180030003000600060004000C0008000F5
:10233000800180010003000300060000000000008F
:102340000000000000000000F800F800800080009D
:10235000800080008000800080008000800080007D
:10236000800080008000800080008000F800000075
:102370000000000000000000000000006000F0000D
:10238000980198010C030402000000000000000006
:10239000000000000000000000000000000000003D
:1023A000000000000000000000000000000000002D
:1023B000000000000000000000000000000000001D
:1023C000000000000000000000000000FF0F0000FF
:1023D0000000000000000000000038006000000065
:1023E00000000000000000000000000000000000ED
:1023F00000000000000000000000000000000000DD
:1024000000000000000000000000000000000000CC
:102410000000FC01040300030003F8031C030C0389
:102420000603CC037C020000000000000000000056
:10243000000000000000000000000C000C000C0078
:102440000C00FC031C030C060C060C060C060C0608
:102450000C038C03FC0000000000000000000000E2
:10246000000000000000000000000000000000006C
:102470000000F00318000C000C000C000C000C0015
:102480000C003803F0030000000000000000000012
:102490000000000000000000000000030003000333
:1024A0000003F8031C030C030603060306030603DC
:1024B0008C03CC0278020000000000000000000045
:1024C000000000000000000000000000000000000C
:1024D0000000F8010C030C060606FE0706000600C5
:1024E0000C001C02F80300000000000000000000C7
:1024F00000000000000000008003E00760003000E2
:1025000030003000FE07FE073000300030003000A1
:10251000300030003000000000000000000000002B
:1025200000000000000000000000000000000000AB
:102530000000F8070C030C030C030C03FC016400FF
:102540000600FC01FC07060606060E07FC03000059
:10255000000000000000000000000C000C000C0057
:102560000C00FC031C030C030C020C020C020C02FA
:102570000C020C020C020000000000000000000031
:10258000000000000000000060006000600000002B
:1025900000007C006000600060006000600060007F
:1025A00060006000FC070000000000000000000068
:1025B00000000000000000008000C0018001000059
:1025C0000000FC0180018001800180018001800108
:1025D00080018001800180018001C2007E00000036
:1025E000000000000000000000000C000C000C00C7
:1025F0000C000C038C01CC006C003C006C00CC0087
:102600008C018C030C07000000000000000000009B
:10261000000000000000000000007C00600060007E
:1026200060006000600060006000600060006000AA
:1026300060006000FC0700000000000000000000D7
:10264000000000000000000000000000000000008A
:102650000000BA07EA0666066606660666066606AD
:102660006606660666060000000000000000000026
:10267000000000000000000000000000000000005A
:102680000000F4031C030C030C020C020C020C02ED
:102690000C020C020C020000000000000000000010
:1026A000000000000000000000000000000000002A
:1026B0000000F8010C0306060606060606060606D6
:1026C0000E079C03F801000000000000000000005D
:1026D00000000000000000000000000000000000FA
:1026E0000000F4031C030C060C060C060C060C067A
:1026F0000C038C03FC000C000C000C000C00000010
:1027000000000000000000000000000000000000C9
:102710000000F8031C030C0306030603060306036C
:102720008C03DC02780300030003000300030000B5
:102730000000000000000000000000000000000099
:102740000000EC033C061C060C060C000C000C0000
:102750000C000C000C000000000000000000000055
:102760000000000000000000000000000000000069
:102770000000F8030C000C001C00F800E00300034C
:1027800000038C03FC0100000000000000000000BA
:1027900000000000000000000000200030003000B9
:1027A0003000FE03300030003000300030003000D8
:1027B00030007000E0030000000000000000000096
:1027C0000000000000000000000000000000000009
:1027D00000000C020C020C020C020C020C020C0297
:1027E0000C03DC0278020000000000000000000082
:1027F00000000000000000000000000000000000D9
:10280000000006060E060C030C03980198019801BF
:10281000F000F00060000000000000000000000078
:1028200000000000000000000000000000000000A8
:102830000000020C020466046606E606F60696062A
:1028400094079C030C03000000000000000000003F
:102850000000000000000000000000000000000078
:1028600000000C071C039801F000E000F000F001EC
:1028700098010C030E06000000000000000000009C
:102880000000000000000000000000000000000048
:10289000000006060E060C030C0398019801B00117
:1028A000F000F00060006000300038000E00000012
:1028B0000000000000000000000000000000000018
:1028C0000000FC0300038001C000600070003000C5
:1028D0001800FC03FC0300000000000000000000E2
:1028E00000000000000000008003E00360006000C2
:1028F00060006000600020003C003C003000600090
:1029000060006000600060006000E000C003000044
:102910000000000060006000600060006000600077
:1029200060006000600060006000600060006000A7
:1029300060006000600060006000600060000000F7
:1029400000000000000000001C007C00600040004F
:10295000400040004000C000C0038003C0004000B1
:102960004000400040004000600060003C0000006B
:102970000000000000000000000000000000000057
:102980000000000000001C003E046606C2070000B4
:102990000000000000000000000000000000000037
:1029A0000000000000000000000000000000000027
:1029B0000000000000000000000000000000000017
:1029C0000000000000000000000000000000000007
:1029D00000000000000000000000000000000000F7
:1029E000000000000000000000000000C001C00165
:1029F00080018001800180018001800180018001CF
:102A0000800180018001800100000000C001C0033E
:102A1000C0010000000000000000000000000000F5
:102A2000000000000000000000000000700E700EAA
:102A3000700E700E700E300C300C000000000000A4
:102A40000000000000000000000000000000000086
:102A50000000000000000000000000000000000076
:102A60000000000000000000000000000000000066
:102A70006018601C600C600CFE7FFE7F300C300C18
:102A8000300C300CFE7FFE7F300638061806180624
:102A90001806000000000000000000000000000018
:102AA000000000000000000000000003000300031D
:102AB000E01FF81F1C038C038C019C01BC01F80172
:102AC000E00F801FC03DC038C030C038C43CFC1F80
:102AD000FC07E00060006000000000000000000053
:102AE00000000000000000000000000038E07E60F0
:102AF000C630C618C61CC60C7E063C070003800103
:102B0000C001C01C607E3063386318630C630E77AD
:102B1000063E000000000000000000000000000071
:102B20000000000000000000000000000000F003B2
:102B3000F807180E1C0E1C0E180E3807F003F000D4
:102B4000FC31DC318E330637063E0E1C0E3EFC7F18
:102B5000F8F300000000000000000000000000008A
:102B6000000000000000000000000000C003C003DF
:102B7000C001800180018001800100000000000090
:102B80000000000000000000000000000000000045
:102B90000000000000000000000000000000000035
:102BA000000000000000000000000000000C000613
:102BB00000078003C001C000E000E000600070007A
:102BC000700070007000700070006000E000E000B5
:102BD000C001C00180030007000E000C00000000CF
:102BE0000000000000000000000000003000700045
:102BF000E000C00180038003000700070006000E0C
:102C0000000E000E000E000E000600060007000772
:102C100080038003C001E00070003000000000006D
:102C200000000000000000000000000080018001A2
:102C300080119819F01FC003C003F81F9819800174
:102C40008001800100000000000000000000000082
:102C50000000000000000000000000000000000074
:102C60000000000000000000000000000000000064
:102C700000000000000080018001800180018001CF
:102C80008001FE7FFE7F8001800180018001800144
:102C90000000000000000000000000000000000034
:102CA0000000000000000000000000000000000024
:102CB0000000000000000000000000000000000014
:102CC00000000000000000000000C001C003C003BD
:102CD000800380038003E001F8000800000000008A
:102CE00000000000000000000000000000000000E4
:102CF00000000000000000000000000000000000D4
:102D00000000F00FF00F00000000000000000000C5
:102D100000000000000000000000000000000000B3
:102D200000000000000000000000000000000000A3
:102D30000000000000000000000000000000000093
:102D400000000000000000000000C003C003C0033A
:102D5000C0030000000000000000000000000000B0
:102D60000000000000000000000000000038001813
:102D7000001C000C000E0006000600030003800388
:102D80008001C001C000E000600070003000300031
:102D9000180018001C000C000000000000000000DB
:102DA0000000000000000000000000000000000023
:102DB000E00FF81F181C1C380C300C3C0E7E8E7770
:102DC000CE73FE707E701C300C301C38381CF80F2F
:102DD000E00700000000000000000000000000000C
:102DE00000000000000000000000000000000000E3
:102DF000C003F003FC039C03800380038003800373
:102E00008003800380038003800380038003FC3FF2
:102E1000FC3F000000000000000000000000000077
:102E200000000000000000000000000000000000A2
:102E3000F007FC0F181C001C00180018001C000CE8
:102E4000000E00078003C001E00070003800FC3F66
:102E5000FC3F000000000000000000000000000037
:102E60000000000000000000000000000000000062
:102E7000F807F80F001C001C001C001C000EE007E7
:102E8000E00F001E0038003800380038001CFC0F2E
:102E9000FC03000000000000000000000000000033
:102EA0000000000000000000000000000000000022
:102EB000000F800F800DC00CE00C600C300C380C43
:102EC0001C0C0C0C0E0CFE7FFE7F000C000C000C8A
:102ED000000C0000000000000000000000000000E6
:102EE00000000000000000000000000000000000E2
:102EF000F81FF81F18001800180018001800F8072D
:102F0000F81F001C0038003800380018001CF80FAB
:102F1000F8030000000000000000000000000000B6
:102F200000000000000000000000000000000000A1
:102F3000801FE01F7000380018001C008C03FC1F6D
:102F40007C3C0C380C300C301C301C303838F81FEE
:102F5000E00700000000000000000000000000008A
:102F60000000000000000000000000000000000061
:102F7000FC3FFC3F00380018001C000C000E00064F
:102F80000007000380038001C001E000E000700042
:102F900070000000000000000000000000000000C1
:102FA0000000000000000000000000000000000021
:102FB000F00F781E1C381C381C383C18781EF0079F
:102FC000E007781E3C3C1C380C300C301C38F81FD5
:102FD000F00F0000000000000000000000000000F2
:102FE00000000000000000000000000000000000E1
:102FF000F007781E1C1C0C380E380E300C301C38B4
:103000007C3FF037003800380018001C000FF8072C
:10301000F8000000000000000000000000000000B8
:1030200000000000000000000000000000000000A0
:103030000000000000000000C003C003C0038001C6
:10304000000000000000000000008001C003C00379
:10305000C0030000000000000000000000000000AD
:103060000000000000000000000000000000000060
:103070000000000000000000C003C003C003800186
:1030800000000000000000000000C003C003C003F7
:10309000800380038003E001F000000000000000D6
:1030A0000000000000000000000000000000000020
:1030B000000000000008001C000E8007C003E000B4
:1030C00070003C0038007000E00180030007001E23
:1030D00000080000000000000000000000000000E8
:1030E00000000000000000000000000000000000E0
:1030F0000000000000000000000000000000FC3F95
:10310000000000000000FC3FFC3F00000000000049
:1031100000000000000000000000000000000000AF
:10312000000000000000000000000000000000009F
:1031300000000000100038007000E000C00300072D
:10314000000E003C001C000E8007C001E00078006B
:10315000100000000000000000000000000000005F
:103160000000000000000000000000007000F003FC
:10317000C007000E001C001C001C001C001EC00F1D
:10318000C003C000C000C00000000000E000E0017B
:10319000E00000000000000000000000000000004F
:1031A0000000000000000000000000008007E01F99
:1031B0007038387018600C600CC086CFC6CF66CCF3
:1031C00067CE73C633C6336633663367F33FE33C7B
:1031D0000600060006000C003C0CF80F0000000082
:1031E00000000000000000000000000000000000DF
:1031F000C003C003E00760076006700E300E300C9D
:10320000381C181C1C38FC3FFC3F0E700E7006600A
:1032100007E00000000000000000000000000000C7
:10322000000000000000000000000000000000009E
:10323000FC0FFC1F1C1C1C381C381C181C1CFC0F11
:10324000FC0F1C3C1C381C301C301C381C3CFC1F68
:10325000FC0700000000000000000000000000006B
:10326000000000000000000000000000000000005E
:10327000E03FF03F78001C001C000C000E000E0028
:103280000E000E000E000C001C003C007820F03FE9
:10329000C03F00000000000000000000000000002F
:1032A000000000000000000000000000000000001E
:1032B000FC07FC0F0C1C0C380C300C700C700C70E4
:1032C0000C700C700C700C300C380C380C1EFC0F91
:1032D000FC010000000000000000000000000000F1
:1032E00000000000000000000000000000000000DE
:1032F000F81FF81F18001800180018001800F81F11
:10330000F81F180018001800180018001800F81FFF
:10331000F81F000000000000000000000000000096
:10332000000000000000000000000000000000009D
:10333000F81FF81F18001800180018001800F81FD0
:10334000F81F1800180018001800180018001800BE
:103350001800000000000000000000000000000055
:10336000000000000000000000000000000000005D
:10337000E03FF03F38001C000C000E000E000E3F36
:103380000E3F0E300E300E300C301C303830F03F17
:10339000E03F00000000000000000000000000000E
:1033A000000000000000000000000000000000001D
:1033B0000C300C300C300C300C300C300C30FC3F2E
:1033C000FC3F0C300C300C300C300C300C300C301E
:1033D0000C300000000000000000000000000000B1
:1033E00000000000000000000000000000000000DD
:1033F000FC3FFC3F80018001800180018001800151
:103400008001800180018001800180018001FC3FFA
:10341000FC3F000000000000000000000000000071
:10342000000000000000000000000000000000009C
:10343000F80FF80F000C000C000C000C000C000C36
:10344000000C000C000C000C000C000C080EF8071F
:10345000F803000000000000000000000000000071
:10346000000000000000000000000000000000005C
:103470001C381C1C1C0E1C071C039C01DC00FC00DF
:10348000FC00DC00DC019C031C071C0E1C1C1C3C0B
:103490001C380000000000000000000000000000D8
:1034A000000000000000000000000000000000001C
:1034B000380038003800380038003800380038004C
:1034C0003800380038003800380038003800F83F3D
:1034D000F83F0000000000000000000000000000B5
:1034E00000000000000000000000000000000000DC
:1034F0001C381C38367C367C367666766676E67303
:10350000C673C66186610660066006600660066076
:103510000660000000000000000000000000000045
:10352000000000000000000000000000000000009B
:103530001C303C303C307C306C30EC30CC30CC310A
:103540008C318C330C330C370C360C3E0C3C0C3C61
:103550000C38000000000000000000000000000027
:10356000000000000000000000000000000000005B
:10357000F00FF81F1C381C380E700E700E700660AD
:10358000066006600E700E700E301C383C1CF81F72
:10359000F007000000000000000000000000000034
:1035A000000000000000000000000000000000001B
:1035B000FC07FC1F1C3C1C381C301C301C301C3809
:1035C0001C1EFC0FFC031C001C001C001C001C002B
:1035D0001C000000000000000000000000000000CF
:1035E00000000000000000000000000000000000DB
:1035F000F00FF81F1C381C380E700E700E7006602D
:10360000066006600E700E700E301C383C1CF81FF1
:10361000F00780018001804700FF003C00000000AF
:10362000000000000000000000000000000000009A
:10363000FC07FC1F1C1C1C181C181C181C1CFC0F55
:10364000FC039C071C061C0E1C1C1C1C1C381C3874
:103650001C700000000000000000000000000000DE
:10366000000000000000000000000000000000005A
:10367000F01FF81F1C001C000C001C007800F0015B
:10368000E00F001F003C003800380038003CFC1FF1
:10369000FC07000000000000000000000000000027
:1036A000000000000000000000000000000000001A
:1036B000FE7FFE7F8001800180018001800180010A
:1036C00080018001800180018001800180018001F2
:1036D0008001000000000000000000000000000069
:1036E00000000000000000000000000000000000DA
:1036F0000C300C300C300C300C300C300C300C30EA
:103700000C300C300C300C300C300C381C38F81FDE
:10371000F0070000000000000000000000000000B2
:103720000000000000000000000000000000000099
:1037300007E00E600E700E701C301C381C18381814
:10374000381C300C700E700E6006E007E007C003F6
:10375000C0030000000000000000000000000000A6
:103760000000000000000000000000000000000059
:103770000660066006600660066006608661C663D5
:10378000CE63CE736E776C366C363C3E3C3C3C3C34
:103790001C380000000000000000000000000000D5
:1037A0000000000000000000000000000000000019
:1037B0000E701C38381C381C700E6007E007C00300
:1037C000C003C003E007700E380C381C1C380E789C
:1037D0000E7000000000000000000000000000006B
:1037E00000000000000000000000000000000000D9
:1037F00007600E701C301C38381C380C700E6006C8
:10380000E007C00380018001800180018001800108
:103810008001000000000000000000000000000027
:103820000000000000000000000000000000000098
:10383000FC3FFC3F0038001C000E00060007800320
:10384000C001C001E0007000300038001C00FC3FE7
:10385000FC3F00000000000000000000000000002D
:10386000000000000000000000000000E00FE00F7A
:103870006000600060006000600060006000600048
:103880006000600060006000600060006000600038
:1038900060006000600060006000E00F0000000059
:1038A0000000000000000000000000001C001800E4
:1038B00038003000300060006000E000C000C0014F
:1038C000800180030003000700060006000C000CC6
:1038D000001C00180038003000000000000000004C
:1038E000000000000000000000000000F007F007EA
:1038F0000006000600060006000600060006000698
:103900000006000600060006000600060006000687
:1039100000060006000600060006F0070000000092
:103920000000000000000000000000000000000097
:10393000C001C00360076006300C381C18180C3832
:103940000000000000000000000000000000000077
:103950000000000000000000000000000000000067
:103960000000000000000000000000000000000057
:103970000000000000000000000000000000000047
:103980000000000000000000000000000000000037
:103990000000000000000000FFFFFFFF000000002B
:1039A000000000000000000000000000380070006F
:1039B000E0008001000000000000000000000000A6
:1039C00000000000000000000000000000000000F7
:1039D00000000000000000000000000000000000E7
:1039E00000000000000000000000000000000000D7
:1039F0000000000000000000F80F781F00180038D9
:103A00000038E03FF83F3C381C380C381C3EFC3F87
:103A1000F83B000000000000000000000000000073
:103A20000000000000000000000000001C001C005E
:103A30001C001C001C001C00DC0FFC1F7C381C3010
:103A40001C301C301C301C301C301C381C1CFC0F63
:103A5000F807000000000000000000000000000067
:103A60000000000000000000000000000000000056
:103A70000000000000000000C01FF01F78003800A8
:103A80001C001C001C001C001C0038007800F01FEB
:103A9000C01F000000000000000000000000000047
:103AA00000000000000000000000000000380038A6
:103AB0000038003800380038E03FF83F18381C382C
:103AC0000C380C380C380C380C381C3C1C3EF83BBD
:103AD000F0390000000000000000000000000000BD
:103AE00000000000000000000000000000000000D6
:103AF0000000000000000000E00F781E18381C389D
:103B00000C30FC3FFC3F0C000C001C003800F83F60
:103B1000E03F000000000000000000000000000086
:103B2000000000000000000000000000007E807F18
:103B3000C003C001C000C000C000C000FE3FFE3F87
:103B4000C000C000C000C000C000C000C000C00075
:103B5000C0000000000000000000000000000000A5
:103B60000000000000000000000000000000000055
:103B70000000000000000000F07F387E181C1C18B8
:103B80001C181C1C381EF80FDC010C001C00F81F50
:103B9000F83F0C700E700E303C3CF81F80010000A6
:103BA0000000000000000000000000001C001C00DD
:103BB0001C001C001C001C00DC0FFC1F3C181C38E7
:103BC0001C381C381C381C381C381C381C381C3855
:103BD0001C38000000000000000000000000000091
:103BE0000000000000000000000000008001C00391
:103BF000C003800100000000F803F8038003800385
:103C00008003800380038003800380038003FC3FE4
:103C1000FC3F000000000000000000000000000069
:103C20000000000000000000000000000006000E80
:103C3000000E000E00000000FC0FFC0F000E000E36
:103C4000000E000E000E000E000E000E000E000E04
:103C5000000E000E000E00069C07FC036000000032
:103C60000000000000000000000000001800180024
:103C700018001800180018001838181C180E98079B
:103C8000D803F800D80198039807180F181E183C9D
:103C90001878000000000000000000000000000094
:103CA000000000000000000000000000F803F8031E
:103CB00080038003800380038003800380038003EC
:103CC0008003800380038003800380038003FC3F24
:103CD000FC3F0000000000000000000000000000A9
:103CE00000000000000000000000000000000000D4
:103CF0000000000000000000F63CF6379E738E7353
:103D00008E718E718E718E718E718E718E718E71BB
:103D10008E710000000000000000000000000000A4
:103D20000000000000000000000000000000000093
:103D30000000000000000000CC0FFC1F3C181C38E5
:103D40001C381C381C381C381C381C381C381C38D3
:103D50001C3800000000000000000000000000000F
:103D60000000000000000000000000000000000053
:103D70000000000000000000F00FF81F1C380C309D
:103D80000C300E700E700E700C301C381C1CF81F9E
:103D9000F00700000000000000000000000000002C
:103DA0000000000000000000000000000000000013
:103DB0000000000000000000DC0FFC1F7C381C30FD
:103DC0001C301C301C301C301C301C381C1CFC0FE0
:103DD000FC071C001C001C001C001C000000000054
:103DE00000000000000000000000000000000000D3
:103DF0000000000000000000E03FF83E18381C38CA
:103E00000C380C380C380C380C381C3C1C3EF83B79
:103E1000F039003800380038003800380000000061
:103E20000000000000000000000000000000000092
:103E30000000000000000000981FD83F78303830A4
:103E40001870180018001800180018001800180042
:103E5000180000000000000000000000000000004A
:103E60000000000000000000000000000000000052
:103E70000000000000000000F01F781C180018006F
:103E80003800F001E00F001F001C00380018F81F78
:103E9000F807000000000000000000000000000023
:103EA0000000000000000000000000000000000012
:103EB0006000600060006000FE3FFE3F6000600048
:103EC000600060006000600060006000E000C03FD3
:103ED000803F000000000000000000000000000023
:103EE00000000000000000000000000000000000D2
:103EF00000000000000000001C381C381C381C3872
:103F00001C381C381C381C381C381C3C183EF83F28
:103F1000F039000000000000000000000000000078
:103F20000000000000000000000000000000000091
:103F300000000000000000000E700C301C38181843
:103F4000381C380C300C700E6006E007E003C0032C
:103F5000C00300000000000000000000000000009E
:103F60000000000000000000000000000000000051
:103F70000000000000000000066006600660866128
:103F80008E71CE73CC334C376C366C363C3E3C3C39
:103F9000381C0000000000000000000000000000CD
:103FA0000000000000000000000000000000000011
:103FB00000000000000000001C383818381C700E8B
:103FC000E007C003C003C003E007700E381C1C38B4
:103FD0001E7800000000000000000000000000004B
:103FE00000000000000000000000000000000000D1
:103FF00000000000000000000E700C301C38181883
:10400000381C381C700C700E6006E007C007C00337
:10401000C003C001C001E0007E003E0000000000BF
:104020000000000000000000000000000000000090
:104030000000000000000000F81FF81F001C000E28
:1040400000078003C001C000E00070003800FC3FA2
:10405000FC3F000000000000000000000000000025
:10406000000000000000000000000000001F801F92
:104070008001C001C001C001C001C001C001C00079
:10408000FC003C00F000C000C001C001C001C00144
:10409000C001C001C00180018007001F00000000B6
:1040A000000000000000800180018001800180018B
:1040B00080018001800180018001800180018001F8
:1040C00080018001800180018001800180018001E8
:1040D00080018001800180018001800100000000DA
:1040E0000000000000000000000000007800F8015F
:1040F000800180038003800380038003800300032A
:10410000003F003C0007000380038003800380031E
:104110008003800380038001E001F80000000000BC
:10412000000000000000000000000000000000008F
:104130000000000000000000000000000000780007
:10414000FC60CE61863F063F0000000000000000DA
:10415000000000000000000000000000000000005F
:10416000CAFDD1A700000000C0FACAB700000000D5
:10417000D3EFCEC400000000D5FED6CE0000000074
:10418000B5D8C0ED00000000D3A2D3EF00000000BE
:10419000B04100080000002078000000280100085D
:1041A0002842000878000020D006000044010008E2
:1041B00000A24A0400000000000000000102030405
:1041C00006070809000000000000000000000000D1
:1041D00000000000000000000000000000000000DF
:1041E00070410008000020005BAE00006041000844
:1041F0000000220026D400008841000800002400AE
:10420000D13001007841000800002600D49D010053
:104210006841000800002800FC7601008041000889
:0842200000002A002FD200006B
:04000005080000ED02
:00000001FF
