:020000040800F2
:10000000E0060020CD01000859130008B30B0008DA
:100010003D13000833030008291900080000000000
:10002000000000000000000000000000C7150008EC
:10003000F506000800000000D51300088916000826
:10004000E7010008E7010008E7010008E7010008F0
:10005000E7010008E7010008E7010008E7010008E0
:10006000E7010008E7010008E7010008E7010008D0
:10007000E7010008E7010008E7010008E7010008C0
:10008000E7010008E7010008E7010008E7010008B0
:10009000E7010008E7010008E7010008E7010008A0
:1000A000E7010008E7010008E7010008E701000890
:1000B000E7010008E7010008E7010008E701000880
:1000C000E7010008E7010008E7010008E701000870
:1000D000E701000881170008E7010008E7010008B0
:1000E000E7010008E7010008E7010008E701000850
:1000F000E7010008E7010008E7010008E701000840
:10010000E7010008E7010008E7010008E70100082F
:10011000E7010008E7010008E7010008E70100081F
:10012000E7010008E7010008E7010008E70100080F
:1001300000F002F800F03AF80AA090E8000C8244BF
:100140008344AAF10107DA4501D100F02FF8AFF29C
:10015000090EBAE80F0013F0010F18BFFB1A43F0A5
:1001600001031847301A0000501A0000103A24BF4B
:1001700078C878C1FAD8520724BF30C830C144BF0C
:1001800004680C607047000000230024002500264E
:10019000103A28BF78C1FBD8520728BF30C148BFEA
:1001A0000B6070471FB51FBD10B510BD00F08AF879
:1001B0001146FFF7F7FF01F049FC00F0A8F803B47F
:1001C000FFF7F2FF03BC00F0ADF8000009488047DC
:1001D00009480047FEE7FEE7FEE7FEE7FEE7FEE729
:1001E000FEE7FEE7FEE7FEE704480549054A064B41
:1001F000704700009916000831010008E000002057
:10020000E0060020E0020020E002002010B5203AC5
:10021000C0F00B80B1E81850203AA0E81850B1E8BF
:100220001850A0E81850BFF4F5AF5FEA027C24BF75
:10023000B1E81850A0E8185044BF18C918C0BDE86C
:1002400010405FEA827C24BF51F8043B40F8043B35
:1002500008BF7047D20728BF31F8023B48BF11F8EA
:10026000012B28BF20F8023B48BF00F8012B704744
:100270004FF0000200B5134694469646203922BF3F
:10028000A0E80C50A0E80C50B1F12001BFF4F7AF8A
:10029000090728BFA0E80C5048BF0CC05DF804EB6C
:1002A000890028BF40F8042B08BF704748BF20F8DA
:1002B000022B11F0804F18BF00F8012B70477047D8
:1002C00070477047754600F029F8AE46050069464C
:1002D000534620F00700854618B020B5FFF784FF8D
:1002E000BDE820404FF000064FF000074FF0000837
:1002F0004FF0000B21F00701AC46ACE8C009ACE8B8
:10030000C009ACE8C009ACE8C0098D467047044696
:10031000AFF300802046FFF752FF0000004870470F
:100320007C00002001491820ABBEFEE72600020039
:100330007047FEE730B591B0044640216846FFF7AC
:1003400097FF207877280DD072282FD0692840D0C9
:10035000662846D0732847D062284BD0742813D023
:10036000274833E06078732826A00FD000F07AF891
:10037000294C05460120207028A001F040FA2846AB
:1003800000F01EFA0020207011B030BD00F06AF8B5
:10039000044627A000F066F82BA1684600F080F81C
:1003A00002462146684600F0C1FA0EE015A000F0B2
:1003B00059F805461EA000F055F8044602462946A5
:1003C000684600F085FAE1B207E025A001F017FACF
:1003D000DAE7684600F054FA0221684601F000FAB4
:1003E000F3E700F035FACFE706A000F03BF800F0A5
:1003F000C3FAC9E703A000F035F800F0A5F9C3E798
:10040000381B0008C7EBCAE4C8EB3234CEAAB5D813
:10041000D6B73A0D0A00000020000020666C617318
:1004200068B2D9D7F7C5E4D6C3CDEAB3C90D0A007F
:10043000C7EBCAE4C8EBD2AAB6C1C8A1B5C4B8F626
:10044000CAFD3A0D0A000000C7EBCAE4C8EBD7D6D4
:10045000B7FBB4AE28D7EEB6E03634B8F6293A008A
:100460000D0A000008B501F0CAF90C48017800290E
:10047000FCD0002101700421684600F017F99DF8B6
:1004800000009DF8011041EA00209DF8021041EAA9
:1004900000209DF8031041EA002008BD1F00002045
:1004A00010B50446084601F0AAF90648017800296B
:1004B000FCD0002101702046BDE81040402100F032
:1004C000F5B800001F000020C008800140EA91003C
:1004D000400140EAD2007047F0B54BA0B5B0D0E97A
:1004E0000010CDE928104AA022AB07C883E8070016
:1004F0004AA025ABD0E90010CDE92A1049A007C8D1
:1005000083E807004AA02422D0E90010CDE92C108E
:1005100049A1D1E90001CDE92E0149A0D0E900109F
:10052000CDE9301048A119A8FFF770FE4FA1D1E91D
:100530000001CDE932014FA1D1E90001CDE910015F
:1005400028A8129022A813902AA8149025A81590E4
:100550002CA816902EA8179030A818904021684615
:1005600000F0A4F80546002410AE12AF325DAA4296
:1005700005D857F82410684600F088F818B9641CAC
:10058000E4B2072CF2D33D483D4A00276E46072CC3
:1005900038D2DFE804F004060A0F151F25002021D9
:1005A00005E0202100F003FB20E02021104600F0B0
:1005B000FCFA1BE02021104600F0F9FA31A013E00C
:1005C00077559DF84400721C291AC9B2104401F0F5
:1005D00007F90BE09DF845003044FFF7ABFE05E05E
:1005E00077559DF84600304400F0E6FD701900F89C
:1005F000017C684601F003F90DF1C80001F0FFF835
:1006000035B0F0BD19A8F9E74C454431206F6E00B4
:100610004C454431206F6666000000004C45443272
:10062000206F6E004C454432206F6666000000006B
:1006300072657475726E0000666C617368202D00BF
:100640007072696E74200000546865726520697369
:10065000206E6F20636F72726573706F6E64696E67
:100660006720636F6D6D616E640D0A00202D3E0D75
:100670000A0000000708070806070600000C0140F2
:1006800000180140616161616161610010B507E0BE
:1006900010F8013B11F8014BA34201D0002010BD1E
:1006A000521ED2B2F4D2012010BD000070B50F4C22
:1006B000227800260E4B91420BD32278267000211F
:1006C00003E05C5C4454491CC9B29142F9D3104622
:1006D00070BDCDB22670002203E09C5C8454521C95
:1006E000D2B28A42F9D3284670BD00001C00002017
:1006F0002C0000207047000001B5034800990160FC
:1007000001680029FCD108BD1400002003480168DD
:10071000002902D00168491E0160704714000020C2
:100720004FF0E02042F227314161064AF02182F881
:10073000141D00218161072101616FF0040000F0A8
:1007400097BF00000FE000E070B5040400F020F84F
:1007500001F00AF90D4E4FF480552946304600F05D
:1007600024FAD82000F0E4FEC4F3074000F0E0FED5
:10077000C4F3072000F0DCFE002000F0D9FE29467B
:100780003046BDE8704000F012BA0000000C014095
:1007900070B50A4D4FF480542146284600F005FA02
:1007A000052000F0C5FE002000F0C2FEC007FAD10F
:1007B00021462846BDE8704000F0F9B9000C014020
:1007C000F0B50446C0B2404291B000F03F0640216F
:1007D0006846FFF74DFD1C4D28780128FCD11B4FC2
:1007E00016B33878B04202D228780128F9D03146C1
:1007F0006846FFF75BFF064602462146684600F062
:10080000DFF8287801281CD134440DE038784028DE
:100810000AD340216846FFF749FF064602462146B3
:10082000684600F0CDF8EFE728780128EED04021A7
:100830006846FFF73BFF020003D02146684600F000
:10084000BFF811B0F0BD0000210000201C00002006
:1008500070B5FFF79DFF01F087F8084D4FF4805405
:100860002146284600F0A1F9C72000F061FE21468C
:100870002846BDE8704000F09AB90000000C014025
:1008800070B50446FFF784FF104E4FF4805529469B
:10089000304600F08AF9902000F04AFE002000F077
:1008A00047FE002000F044FE002000F041FE002042
:1008B00000F03EFE2070002000F03AFE60702946F5
:1008C0003046BDE8704000F072B90000000C0140F5
:1008D0002DE9F04114460D460646FFF759FFDFF8B3
:1008E00048804FF480573946404600F05EF90320B7
:1008F00000F01EFEC5F3074000F01AFEC5F3072006
:1009000000F016FEE8B200F013FE04E0002000F054
:100910000FFE06F8010B641EF8D239464046BDE8CA
:10092000F04100F044B90000000C01402DE9F0470F
:100930000746C8B215460E46C0F580744FF480785D
:100940004FF4C8790BE022463146384600F038F8BB
:10095000264427442D1B4446484600F0C5FEA542C8
:10096000F1D2002D06D0AAB231463846BDE8F04794
:1009700000F026B8BDE8F08770B50403FFF708FF64
:1009800000F0F2FF0D4E4FF480552946304600F03E
:100990000CF9202000F0CCFDC4F3074000F0C8FDA6
:1009A000C4F3072000F0C4FD002000F0C1FD29467B
:1009B0003046BDE8704000F0FAB80000000C01407D
:1009C0002DE9F04114460D460646FFF7E1FE00F022
:1009D000CBFFDFF848804FF480573946404600F09F
:1009E000E4F8022000F0A4FDC5F3074000F0A0FDEC
:1009F000C5F3072000F09CFDE8B201E016F8010BFA
:100A000000F096FD641EA4B2F8D23946404600F0CC
:100A1000CEF8BDE8F041FFF7BBBE0000000C01407E
:100A20008000A0F1C0400029016802D041F001011E
:100A300001E0024A1140016070470000FEFF0F0014
:100A400010B5D0E901121143D0E903231A43114331
:100A50004269114382691143C2691143026A114319
:100A6000426A1143826A1143C26A1143026B114305
:100A700002689200A2F1C04211608168082907D182
:100A800001688900A1F1C0410A6842F040020A6091
:100A9000416BD1E9002342EA03128B688C891B0267
:100AA00043EA04431A430B8A42EA03520B7D8969E5
:100AB00042EA03620A4301688900A1F1C0414A6029
:100AC000C16AB1F5804F08D000686FF070418000B6
:100AD000A0F1C040C0F8041110BD816BD1E9002322
:100AE00042EA03128B680C8A1B0243EA04531A433E
:100AF0000B7D896942EA036200680A438000A0F125
:100B0000C040C0F8042110BDF0B5CA78002502F03D
:100B10000F03D20601D58A7813430A784FF00F0EDF
:100B200012F0FF0F4FF001021CD004680F8802FA88
:100B300005F63740B74211D14FEA850C0EFA0CF793
:100B400024EA070703FA0CF43C43CF78282F02D09D
:100B5000482F02D002E0466100E006616D1C082DBE
:100B6000E4D304600C88FF2C1ED944685FF00006B3
:100B700006F1080702FA07F50F882F40AF420FD1A0
:100B80004FEA860C0EFA0CF7BC4303FA0CF73C4311
:100B9000CF78282F00D14561CF78482F00D105614B
:100BA000761C082EE4D34460F0BD416170470161BA
:100BB0007047FEE70A490B480A880280498841804D
:100BC000012181800222C28020220272427281723F
:100BD000C172017304488021016040214160704767
:100BE000180000206C000020240000200B488278B0
:100BF00000211AB18170C821417070474278002AE3
:100C0000FBD04278521E42704278002AF5D1027918
:100C10000AB1417170470121C17070471C0000206A
:100C2000F0B5214C2222214D228001232A7A6F7AAD
:100C30006E88A41C2D88012919D98023FF0813E090
:100C400039460DE090F800C01CEA030F01D0268061
:100C500000E025805B08F5D1491E8023C9B2401C05
:100C60000029EFD1521ED2B2002AE9D1F0BD3F09CE
:100C700016E0394610E000BF90F800C01CEA030FF0
:100C800001D0268000E025805B0013F0FF03F3D144
:100C9000491E0123C9B2401C0029EDD1521ED2B217
:100CA000002AE6D1F0BD0000FE07006C6C000020B9
:100CB00010B50446002240F23F13EF21104600F029
:100CC000BBF90021084600F0D5F90649222008802A
:100CD00004484FF49631801C491E04800029FBDC37
:100CE00010BD0000FE07006C10B50121002000F0CF
:100CF000B9F94FF48071012000F0B4F94FF4E061CC
:100D0000022000F0AFF941F23001032000F0AAF90F
:100D10000021042000F0A6F940F20721082000F08D
:100D2000A1F90021092000F09DF900210A2000F01E
:100D300099F901210C2000F095F900210D2000F017
:100D400091F900210F2000F08DF90021102000F012
:100D500089F90721112000F085F90021122000F007
:100D600081F90021132000F07DF9C820FFF7C4FCB1
:100D700041F29051102000F075F940F22721112026
:100D800000F070F93220FFF7B7FC9C21122000F030
:100D900069F93220FFF7B0FC4FF4C851132000F07E
:100DA00061F92321292000F05DF90E212B2000F0AC
:100DB00059F93220FFF7A0FC0021202000F052F961
:100DC0000021212000F04EF93220FFF795FC072189
:100DD000302000F047F940F20771312000F042F96D
:100DE0000621322000F03EF940F20471352000F077
:100DF00039F941F60471362000F034F90421372026
:100E000000F030F90021382000F02CF940F2067192
:100E1000392000F027F940F201713C2000F022F95E
:100E20000F213D2000F01EF93220FFF765FC002164
:100E3000502000F017F9EF21512000F013F90021A4
:100E4000522000F00FF940F23F11532000F00AF950
:100E50004FF42741602000F005F90121612000F0E6
:100E600001F900216A2000F0FDF80021802000F047
:100E7000F9F80021812000F0F5F80021822000F02F
:100E8000F1F80021832000F0EDF80021842000F02B
:100E9000E9F80021852000F0E5F81021902000F00D
:100EA000E1F80021922000F0DDF80321932000F00A
:100EB000D9F84FF48871952000F0D4F800219720DC
:100EC00000F0D0F80021982000F0CCF840F2331167
:100ED000072000F0C7F80021202000F0C3F800210F
:100EE000BDE81040212000F0BDB80000044910B555
:100EF00008800520FFF700FC0148801C008810BD19
:100F0000FE07006C2DE9F84F8046A1EB080017465C
:100F10008946D91B0A9D461C0091B246491C4E4386
:100F20001C46FF2D03D2A84201DDBC4213D0494626
:100F3000404600F081F83946404600F09BF83C48B6
:100F4000222101803B49801C498800E00180761EF7
:100F5000FCD2BDE8F88F7E19B3B24946404600F096
:100F60006BF83946404600F085F8314A222105F1F8
:100F7000010B11802F490AFB0BF08246498802E0E1
:100F80002B4A921C1180401EFAD2671BBAB223462C
:100F90004946404600F050F8B9B2404600F06AF8C1
:100FA0005046234ADFF88CA022211180BAF80210A3
:100FB00002E01F4A921C1180401EFAD208EB050085
:100FC00081B2BBB2B2B2404600F036F8B1B2404690
:100FD00000F050F80098694200EB410000FB0BF074
:100FE000134A4FF0220BD046A2F800B0044602F19B
:100FF000020AB8F8021001E0AAF80010401EFBD265
:10100000A9EB0505BBB2B2B2A8B2494600F014F88C
:10101000B1B2A8B200F02EF80548A0F800B05046D2
:10102000B8F8021000E00180641EFCD291E70000D5
:10103000FE07006C1800002030B50C46014615462E
:10104000502000F00FF82146512000F00BF82946FF
:10105000522000F007F8BDE830401946532000F058
:1010600001B80000024A1080901C01807047000007
:10107000FE07006C0B4600B501462020FFF7F2FF8B
:10108000194621205DF804EBFFF7ECBF2DE9F04194
:1010900001219EB0080200F09FF9012140F2691081
:1010A00000F0B2F90127ADF83C701026DFF8F880A7
:1010B0008DF83F6003248DF83E400FA94046FFF7AE
:1010C00023FD4CF23370ADF83C0018258DF83F50ED
:1010D0008DF83E400FA93548FFF716FD4FF680709A
:1010E000ADF83C008DF83F508DF83E400FA93048D8
:1010F000FFF70AFD41F20100ADF83C008DF83F50CA
:101100008DF83E400FA92B48FFF7FEFC00200F2171
:101110001097CDE9110113901490CDE918041590A2
:10112000169017901A9006211B901C90CDE9001084
:10113000CDE902061D9004903102CDE90801069028
:10114000059007908900CDE90A010C9010A80D9038
:1011500017A80E906846FFF773FC01210620FFF7E1
:101160005FFC3220FFF7C8FA01210020FFF77AFF69
:101170003220FFF7C1FA0020FFF7B8FEA0F51341B7
:10118000253906D001214046FFF711FD1EB0BDE80C
:10119000F081FFF7A9FD3220FFF7AEFA01214046AA
:1011A000FFF703FDF2E70000000C014000140140CE
:1011B00000180140002001402DE9F0474D4CA0B03F
:1011C0000746A588E688DFF830818CE00A2909D037
:1011D00080294ED917F8010F8139C9B27F2808D963
:1011E000413807E0E07A217A761E0844A588304429
:1011F00075E04038C1EB411202EB8111C0B200EB47
:101200004101D8F80020D8F80400514300EB400019
:1012100001EB40116846FFF75BFB217AA6F1010A5A
:1012200001EB0A0083B2607AA5F10109484481B25A
:1012300032462846FFF700FF31462846FFF71AFFDF
:1012400002216846FFF7ECFC607AA17A421802EBB3
:1012500009018DB2C5F1EF01814201DBEF2D41D3D0
:10126000207BE8B3E07A217AA588014401EB0A00EB
:1012700035E0D8F80420203951436846FFF728FBB1
:10128000217AA6F1010901EB090083B2607A3246A6
:1012900005EB5000401E81B22846FFF7CDFE3146D7
:1012A0002846FFF7E7FE01216846FFF7B9FCA07A60
:1012B0004FF0FF324119607A02EB500211448DB2B7
:1012C000C5F1EF01B1EB500F01DBEF2D0AD3207B0D
:1012D00030B1E07A217AA588014401EB090000E0F1
:1012E00000E086B27F1C397800297FF46FAF20B010
:1012F000BDE8F0876C0000202400002008B5012123
:10130000082000F081F80121402000F07DF8202025
:10131000ADF8000003208DF8020010208DF80300C6
:1013200069460448FFF7F0FB69460348FFF7ECFB0A
:1013300008BD0000000C014000180140FEE700005D
:1013400004480178002903D000210170FFF7C4B8D8
:10135000704700001F0000207047000070B50F2389
:10136000C47801780122F4B1144C2468457804F45F
:10137000E064C4F5E064240AC4F10406E340847820
:10138000B5401C402C4301F1E021230181F80034D9
:10139000007800F01F018A404009800000F1E02041
:1013A000C0F8002170BD01F01F0082404809800094
:1013B00000F1E020C0F8802170BD00000CED00E0DD
:1013C0000249084302490860704700000000FA051E
:1013D0000CED00E070470000044A0029516901D07B
:1013E000014300E08143516170470000001002405A
:1013F000044A0029D16901D0014300E08143D16151
:101400007047000000100240044A0029916901D091
:10141000014300E0814391617047000000100240E9
:1014200030B51F494A6812F00C031E4A03D0042B42
:1014300001D0082B21D002604A680F231A4C03EA1E
:101440001212A35C0268DA4042604B68072505EA85
:101450001323E35C22FA03F383604B6805EAD3238A
:10146000E35CDA40C2604968032303EA9131231F39
:10147000595CB2FBF1F1016130BD4A684B6802F47E
:1014800070124FF0020413F4803F04EB924202D03A
:101490004B689B0301D5054B00E0024B5A43CAE75A
:1014A0000010024000127A000400002000093D00F4
:1014B00010B586B001210820FFF7A6FF012188039F
:1014C000FFF796FF4FF46040ADF8140003208DF84D
:1014D000160018208DF8170005A91348FFF714FB14
:1014E0000020ADF800004FF48271ADF80210ADF8A5
:1014F00008004FF40071ADF80A100821ADF80C1087
:10150000ADF80400ADF80600ADF80E000720074C5A
:10151000ADF810006946204600F039F80121204658
:1015200000F020F806B010BD000C0140003800406B
:1015300070B50B4C05460221204600F01DF801282D
:10154000F9D12946204600F020F80121204600F07C
:1015500013F80128F9D1204600F015F8C0B270BD8B
:10156000003800400029018802D041F0400101E02C
:1015700021F04001018070470246002012890A4292
:1015800000D001207047808970478181704730B555
:1015900002884C8802F441530A88CD8822438C8803
:1015A0002C4322430C8922434C8922438C892243B9
:1015B000CC8922431A430280828B22F40062828308
:1015C000098A018230BD70470CB50021264801917F
:1015D0000091026842F4803202604FF4A063026816
:1015E00002F400320092019A521C0192009A12B940
:1015F000019A9A42F3D10268920333D501210091F6
:101600001A490A6842F010020A600A6822F00302CE
:101610000A600A6842F002020A604168416041685B
:101620004160416841F480614160416821F47C116E
:101630004160416841F4E8114160016841F0807106
:10164000016001688901FCD5416821F00301416016
:10165000416841F0020141604168C1F38101022902
:10166000FAD10CBD00910CBD0010024000200240D8
:101670004FF0E0210428086903D020F0040008613D
:10168000704740F00400FAE710B5FFF73FF8BDE8F7
:101690001040FFF7ABBA00000F4810B5016841F0E9
:1016A0000101016041680D4A1140416001680C4A26
:1016B00011400160016821F480210160416821F43A
:1016C000FE0141604FF41F018160FFF77DFF054976
:1016D0004FF00060086010BD001002400000FFF8ED
:1016E000FFFFF6FE08ED00E046E000BF00BF00BFD0
:1016F00000BF00BF00BF00BF00BF00BF00BF00BFF2
:1017000000BF00BF00BF00BF00BF00BF00BF00BFE1
:1017100000BF00BF00BF00BF00BF00BF00BF00BFD1
:1017200000BF00BF00BF00BF00BF00BF00BF00BFC1
:1017300000BF00BF00BF00BF00BF00BF00BF00BFB1
:1017400000BF00BF00BF00BF00BF00BF00BF00BFA1
:1017500000BF00BF00BF00BF00BF00BF00BF00BF91
:1017600000BF00BF00BF00BF00BF00BF00BF00BF81
:1017700000BF00BF00BF00BF401EB6D270470000D0
:1017800070B50B4D40F22551284600F04FF8094C3A
:1017900050B1284600F0C0F807492278885401204B
:1017A000A070217901B160712078401C207070BD5B
:1017B000003801401C0000202C00002070B5074CB0
:1017C00005468021204600F031F80028F9D029464E
:1017D0002046BDE8704000F0A3B80000003801408A
:1017E00070B50E460546002406E000BF15F8010B53
:1017F000FFF7E4FF641CE4B2B442F7D370BD10B548
:10180000044602E0641CFFF7D9FF20780028F9D1D4
:1018100010BDC943018070470029818902D041F47D
:10182000005101E021F400518181704702460020FF
:1018300012880A4200D00120704710B5C1F342134C
:1018400001F01F040121A140012B07D0022B07D07A
:101850001430002A026805D00A4304E00C30F8E78F
:101860001030F6E78A43026010BD000030B5044630
:10187000008A85B00D464CF6FF710840E9880143A7
:101880002182A1894EF6F3100140A8882A891043CD
:101890006A890A431043A081A08A4FF6FF4108409D
:1018A000A9890143A1826846FFF7BAFD194884421D
:1018B00001D1039800E00298A189090400EBC0015E
:1018C00001EB0010296801D5490000E08900B0FB58
:1018D000F1F06422B0FBF2F109010B096FF0180579
:1018E0006B4300EB8300A3891D044FF0320306D540
:1018F00003EBC000B0FBF2F000F0070005E003EBE3
:101900000010B0FBF2F000F00F000843208105B09A
:1019100030BD0000003801408088C0F308007047E7
:10192000C1F3080181807047FEE7000038B501214E
:101930000820FFF769FD4FF48054ADF80040032004
:101940008DF802001020074D8DF8030069462846E7
:10195000FFF7DAF821462846FFF729F9FFF7A8FD37
:1019600038BD0000000C014070B5084D4FF48054A4
:1019700021462846FFF719F90620FFF7D9FD214631
:101980002846BDE87040FFF712B90000000C014086
:1019900070B586B001210420FFF736FD01218803D0
:1019A000FFF732FD4FF40070ADF8100018208DF8ED
:1019B00013000320234C8DF8120004A92046FFF7E2
:1019C000A3F82015ADF8100004208DF8130004A929
:1019D0002046FFF799F800244FF4E1300090ADF86D
:1019E00008400C20184DADF80440ADF80A00ADF8E1
:1019F0000640ADF80C4069462846FFF737FF012145
:101A00002846FFF709FF40F22556012231462846B5
:101A1000FFF713FF31462846FFF7FBFE25208DF820
:101A2000140001208DF817008DF815008DF8164070
:101A300005A8FFF793FC4FF4E060FFF7C1FC06B088
:101A400070BD0000000801400038014008B5F122D7
:101A5000D321E520FEF738FD354C4722BF212080F9
:101A60008720FEF731FD6080FEF75AFEFFF70EFB80
:101A7000FFF78EFFFFF742FCFFF758FFFFF79AF8DA
:101A80006420FEF739FED72206219320FEF71CFDC5
:101A9000FFF70EF9FF20002200901E23EF211046D1
:101AA000FFF730FA092000905A233C22EF21002052
:101AB000FFF728FA0520009096237822EF210020D6
:101AC000FFF720FA02200090D223B422EF21002059
:101AD000FFF718FA002000904FF48773F022D1210D
:101AE0001E20FFF70FFA002240F23F13EF211046AD
:101AF000FFF7A2FADFF83C80DC2463254FF49677E9
:101B000022264FF4FF6908F1020A3946781E87B28F
:101B10002046641EA4B2FFF7ADFAA8F800606D1E5F
:101B2000AAF80090012DF0DAFFF70AFCFCE70000AC
:101B300018000020FE07006C666C617368C3FCC16E
:101B4000EEB8F1CABDD3D0CECACCE2A3ACCABEB700
:101B5000B63A20666C617368202D7720307830307B
:101B6000200D0A2020B2CECAFD3A202D7720CFF2D8
:101B7000666C617368D0B4CAFDBEDD0D0A202D729B
:101B800020B6C1C8A1666C617368B5C4CAFDBEDD6C
:101B90000D0A0000B41B0008000000202C0000000B
:101BA0006C010008E01B00082C000020B4060000B7
:101BB0008801000802040608000000000102030476
:101BC00001020304060708090000000000000000ED
:101BD0000000000000000000000000000000000005
:0400000508000131BD
:00000001FF
